{
  "address": "0xe7f1725E7734CE288F8367e1Bb143E90bb3F0512",
  "abi": [
    {
      "inputs": [
        {
          "internalType": "address",
          "name": "priceFeedAddress",
          "type": "address"
        }
      ],
      "stateMutability": "nonpayable",
      "type": "constructor"
    },
    {
      "inputs": [],
      "name": "NotOwner",
      "type": "error"
    },
    {
      "stateMutability": "payable",
      "type": "fallback"
    },
    {
      "inputs": [],
      "name": "MINIMUM_USD",
      "outputs": [
        {
          "internalType": "uint256",
          "name": "",
          "type": "uint256"
        }
      ],
      "stateMutability": "view",
      "type": "function"
    },
    {
      "inputs": [
        {
          "internalType": "address",
          "name": "",
          "type": "address"
        }
      ],
      "name": "addressToAmountFunder",
      "outputs": [
        {
          "internalType": "uint256",
          "name": "",
          "type": "uint256"
        }
      ],
      "stateMutability": "view",
      "type": "function"
    },
    {
      "inputs": [],
      "name": "fund",
      "outputs": [],
      "stateMutability": "payable",
      "type": "function"
    },
    {
      "inputs": [
        {
          "internalType": "uint256",
          "name": "",
          "type": "uint256"
        }
      ],
      "name": "funders",
      "outputs": [
        {
          "internalType": "address",
          "name": "",
          "type": "address"
        }
      ],
      "stateMutability": "view",
      "type": "function"
    },
    {
      "inputs": [],
      "name": "owner",
      "outputs": [
        {
          "internalType": "address",
          "name": "",
          "type": "address"
        }
      ],
      "stateMutability": "view",
      "type": "function"
    },
    {
      "inputs": [],
      "name": "priceFeed",
      "outputs": [
        {
          "internalType": "contract AggregatorV3Interface",
          "name": "",
          "type": "address"
        }
      ],
      "stateMutability": "view",
      "type": "function"
    },
    {
      "inputs": [],
      "name": "withdraw",
      "outputs": [],
      "stateMutability": "nonpayable",
      "type": "function"
    },
    {
      "stateMutability": "payable",
      "type": "receive"
    }
  ],
  "transactionHash": "0xa9db721b35e76b08ec4c0966fb277bb3bd2fccf1ebae92b1605db3b8f06822c0",
  "args": [
    "0x5FbDB2315678afecb367f032d93F642f64180aa3"
  ],
  "numDeployments": 1,
  "solcInputHash": "6ec731943bc6708bd58a4f2012bc4769",
  "bytecode": "0x60a060405234801561001057600080fd5b50604051610e49380380610e4983398181016040528101906100329190610113565b3373ffffffffffffffffffffffffffffffffffffffff1660808173ffffffffffffffffffffffffffffffffffffffff1660601b8152505080600260006101000a81548173ffffffffffffffffffffffffffffffffffffffff021916908373ffffffffffffffffffffffffffffffffffffffff16021790555050610140565b600080fd5b600073ffffffffffffffffffffffffffffffffffffffff82169050919050565b60006100e0826100b5565b9050919050565b6100f0816100d5565b81146100fb57600080fd5b50565b60008151905061010d816100e7565b92915050565b600060208284031215610129576101286100b0565b5b6000610137848285016100fe565b91505092915050565b60805160601c610ce4610165600039600081816102cc015261048b0152610ce46000f3fe6080604052600436106100745760003560e01c80638da5cb5b1161004e5780638da5cb5b146100fa578063b60d428814610125578063c20089f41461012f578063dc0d3dff1461016c57610083565b80633ccfd60b1461008d5780636b69a592146100a4578063741bef1a146100cf57610083565b36610083576100816101a9565b005b61008b6101a9565b005b34801561009957600080fd5b506100a26102ca565b005b3480156100b057600080fd5b506100b961045e565b6040516100c691906106a0565b60405180910390f35b3480156100db57600080fd5b506100e4610463565b6040516100f1919061073a565b60405180910390f35b34801561010657600080fd5b5061010f610489565b60405161011c9190610776565b60405180910390f35b61012d6101a9565b005b34801561013b57600080fd5b50610156600480360381019061015191906107c2565b6104ad565b60405161016391906106a0565b60405180910390f35b34801561017857600080fd5b50610193600480360381019061018e919061081b565b6104c5565b6040516101a09190610776565b60405180910390f35b60026101e0600260009054906101000a900473ffffffffffffffffffffffffffffffffffffffff163461050490919063ffffffff16565b1015610221576040517f08c379a0000000000000000000000000000000000000000000000000000000008152600401610218906108a5565b60405180910390fd5b6000339080600181540180825580915050600190039060005260206000200160009091909190916101000a81548173ffffffffffffffffffffffffffffffffffffffff021916908373ffffffffffffffffffffffffffffffffffffffff16021790555034600160003373ffffffffffffffffffffffffffffffffffffffff1673ffffffffffffffffffffffffffffffffffffffff16815260200190815260200160002081905550565b7f000000000000000000000000000000000000000000000000000000000000000073ffffffffffffffffffffffffffffffffffffffff163373ffffffffffffffffffffffffffffffffffffffff161461034f576040517f30cd747100000000000000000000000000000000000000000000000000000000815260040160405180910390fd5b600067ffffffffffffffff81111561036a576103696108c5565b5b6040519080825280602002602001820160405280156103985781602001602082028036833780820191505090505b50600090805190602001906103ae9291906105e0565b5060003373ffffffffffffffffffffffffffffffffffffffff16476040516103d590610925565b60006040518083038185875af1925050503d8060008114610412576040519150601f19603f3d011682016040523d82523d6000602084013e610417565b606091505b505090508061045b576040517f08c379a000000000000000000000000000000000000000000000000000000000815260040161045290610986565b60405180910390fd5b50565b600281565b600260009054906101000a900473ffffffffffffffffffffffffffffffffffffffff1681565b7f000000000000000000000000000000000000000000000000000000000000000081565b60016020528060005260406000206000915090505481565b600081815481106104d557600080fd5b906000526020600020016000915054906101000a900473ffffffffffffffffffffffffffffffffffffffff1681565b60008061051083610540565b90506000670de0b6b3a7640000858361052991906109d5565b6105339190610a5e565b9050809250505092915050565b6000808273ffffffffffffffffffffffffffffffffffffffff1663feaf968c6040518163ffffffff1660e01b815260040160a06040518083038186803b15801561058957600080fd5b505afa15801561059d573d6000803e3d6000fd5b505050506040513d601f19601f820116820180604052508101906105c19190610b1c565b5050509150506402540be400816105d89190610b97565b915050919050565b828054828255906000526020600020908101928215610659579160200282015b828111156106585782518260006101000a81548173ffffffffffffffffffffffffffffffffffffffff021916908373ffffffffffffffffffffffffffffffffffffffff16021790555091602001919060010190610600565b5b509050610666919061066a565b5090565b5b8082111561068357600081600090555060010161066b565b5090565b6000819050919050565b61069a81610687565b82525050565b60006020820190506106b56000830184610691565b92915050565b600073ffffffffffffffffffffffffffffffffffffffff82169050919050565b6000819050919050565b60006107006106fb6106f6846106bb565b6106db565b6106bb565b9050919050565b6000610712826106e5565b9050919050565b600061072482610707565b9050919050565b61073481610719565b82525050565b600060208201905061074f600083018461072b565b92915050565b6000610760826106bb565b9050919050565b61077081610755565b82525050565b600060208201905061078b6000830184610767565b92915050565b600080fd5b61079f81610755565b81146107aa57600080fd5b50565b6000813590506107bc81610796565b92915050565b6000602082840312156107d8576107d7610791565b5b60006107e6848285016107ad565b91505092915050565b6107f881610687565b811461080357600080fd5b50565b600081359050610815816107ef565b92915050565b60006020828403121561083157610830610791565b5b600061083f84828501610806565b91505092915050565b600082825260208201905092915050565b7f4e6f7420656e6f7567682076616c75652e000000000000000000000000000000600082015250565b600061088f601183610848565b915061089a82610859565b602082019050919050565b600060208201905081810360008301526108be81610882565b9050919050565b7f4e487b7100000000000000000000000000000000000000000000000000000000600052604160045260246000fd5b600081905092915050565b50565b600061090f6000836108f4565b915061091a826108ff565b600082019050919050565b600061093082610902565b9150819050919050565b7f43616c6c206661696c6564000000000000000000000000000000000000000000600082015250565b6000610970600b83610848565b915061097b8261093a565b602082019050919050565b6000602082019050818103600083015261099f81610963565b9050919050565b7f4e487b7100000000000000000000000000000000000000000000000000000000600052601160045260246000fd5b60006109e082610687565b91506109eb83610687565b9250817fffffffffffffffffffffffffffffffffffffffffffffffffffffffffffffffff0483118215151615610a2457610a236109a6565b5b828202905092915050565b7f4e487b7100000000000000000000000000000000000000000000000000000000600052601260045260246000fd5b6000610a6982610687565b9150610a7483610687565b925082610a8457610a83610a2f565b5b828204905092915050565b600069ffffffffffffffffffff82169050919050565b610aae81610a8f565b8114610ab957600080fd5b50565b600081519050610acb81610aa5565b92915050565b6000819050919050565b610ae481610ad1565b8114610aef57600080fd5b50565b600081519050610b0181610adb565b92915050565b600081519050610b16816107ef565b92915050565b600080600080600060a08688031215610b3857610b37610791565b5b6000610b4688828901610abc565b9550506020610b5788828901610af2565b9450506040610b6888828901610b07565b9350506060610b7988828901610b07565b9250506080610b8a88828901610abc565b9150509295509295909350565b6000610ba282610ad1565b9150610bad83610ad1565b9250827f7fffffffffffffffffffffffffffffffffffffffffffffffffffffffffffffff0482116000841360008413161615610bec57610beb6109a6565b5b817f80000000000000000000000000000000000000000000000000000000000000000583126000841260008413161615610c2957610c286109a6565b5b827f80000000000000000000000000000000000000000000000000000000000000000582126000841360008412161615610c6657610c656109a6565b5b827f7fffffffffffffffffffffffffffffffffffffffffffffffffffffffffffffff0582126000841260008412161615610ca357610ca26109a6565b5b82820290509291505056fea2646970667358221220075d93fb22d08d594a9e31207b36894e3c55c4a237c2f206563a2debb8a761a264736f6c63430008080033",
  "devdoc": {
    "kind": "dev",
    "methods": {},
    "version": 1
  },
  "userdoc": {
    "kind": "user",
    "methods": {},
    "version": 1
  },
  "storageLayout": {
    "storage": [
      {
        "astId": 59,
        "contract": "contracts/FundMe.sol:FundMe",
        "label": "funders",
        "offset": 0,
        "slot": "0",
        "type": "t_array(t_address)dyn_storage"
      },
      {
        "astId": 65,
        "contract": "contracts/FundMe.sol:FundMe",
        "label": "addressToAmountFunder",
        "offset": 0,
        "slot": "1",
        "type": "t_mapping(t_address,t_uint256)"
      },
      {
        "astId": 68,
        "contract": "contracts/FundMe.sol:FundMe",
        "label": "priceFeed",
        "offset": 0,
        "slot": "2",
        "type": "t_contract(AggregatorV3Interface)45"
      }
    ],
    "types": {
      "t_address": {
        "encoding": "inplace",
        "label": "address",
        "numberOfBytes": "20"
      },
      "t_array(t_address)dyn_storage": {
        "base": "t_address",
        "encoding": "dynamic_array",
        "label": "address[]",
        "numberOfBytes": "32"
      },
      "t_contract(AggregatorV3Interface)45": {
        "encoding": "inplace",
        "label": "contract AggregatorV3Interface",
        "numberOfBytes": "20"
      },
      "t_mapping(t_address,t_uint256)": {
        "encoding": "mapping",
        "key": "t_address",
        "label": "mapping(address => uint256)",
        "numberOfBytes": "32",
        "value": "t_uint256"
      },
      "t_uint256": {
        "encoding": "inplace",
        "label": "uint256",
        "numberOfBytes": "32"
      }
    }
  }
}